{
  "_format": "hh-sol-artifact-1",
  "contractName": "AirdropSimple",
  "sourceName": "contracts/AirdropSimple.sol",
  "abi": [
    {
      "inputs": [
        {
          "internalType": "address",
          "name": "_tokenAddress",
          "type": "address"
        },
        {
          "internalType": "address",
          "name": "_basRegistryAddress",
          "type": "address"
        },
        {
          "internalType": "bytes32",
          "name": "_humanSchemaId",
          "type": "bytes32"
        },
        {
          "internalType": "uint256",
          "name": "_claimAmount",
          "type": "uint256"
        }
      ],
      "stateMutability": "nonpayable",
      "type": "constructor"
    },
    {
      "inputs": [
        {
          "internalType": "address",
          "name": "owner",
          "type": "address"
        }
      ],
      "name": "OwnableInvalidOwner",
      "type": "error"
    },
    {
      "inputs": [
        {
          "internalType": "address",
          "name": "account",
          "type": "address"
        }
      ],
      "name": "OwnableUnauthorizedAccount",
      "type": "error"
    },
    {
      "anonymous": false,
      "inputs": [
        {
          "indexed": true,
          "internalType": "address",
          "name": "user",
          "type": "address"
        },
        {
          "indexed": false,
          "internalType": "uint256",
          "name": "amount",
          "type": "uint256"
        }
      ],
      "name": "Claim",
      "type": "event"
    },
    {
      "anonymous": false,
      "inputs": [
        {
          "indexed": true,
          "internalType": "address",
          "name": "previousOwner",
          "type": "address"
        },
        {
          "indexed": true,
          "internalType": "address",
          "name": "newOwner",
          "type": "address"
        }
      ],
      "name": "OwnershipTransferred",
      "type": "event"
    },
    {
      "anonymous": false,
      "inputs": [
        {
          "indexed": true,
          "internalType": "address",
          "name": "token",
          "type": "address"
        },
        {
          "indexed": true,
          "internalType": "address",
          "name": "to",
          "type": "address"
        },
        {
          "indexed": false,
          "internalType": "uint256",
          "name": "amount",
          "type": "uint256"
        }
      ],
      "name": "TokensWithdrawn",
      "type": "event"
    },
    {
      "inputs": [],
      "name": "CLAIM_AMOUNT",
      "outputs": [
        {
          "internalType": "uint256",
          "name": "",
          "type": "uint256"
        }
      ],
      "stateMutability": "view",
      "type": "function"
    },
    {
      "inputs": [],
      "name": "basRegistry",
      "outputs": [
        {
          "internalType": "contract IBASRegistry",
          "name": "",
          "type": "address"
        }
      ],
      "stateMutability": "view",
      "type": "function"
    },
    {
      "inputs": [],
      "name": "claim",
      "outputs": [],
      "stateMutability": "nonpayable",
      "type": "function"
    },
    {
      "inputs": [
        {
          "internalType": "address",
          "name": "",
          "type": "address"
        }
      ],
      "name": "hasClaimed",
      "outputs": [
        {
          "internalType": "bool",
          "name": "",
          "type": "bool"
        }
      ],
      "stateMutability": "view",
      "type": "function"
    },
    {
      "inputs": [],
      "name": "humanSchemaId",
      "outputs": [
        {
          "internalType": "bytes32",
          "name": "",
          "type": "bytes32"
        }
      ],
      "stateMutability": "view",
      "type": "function"
    },
    {
      "inputs": [],
      "name": "owner",
      "outputs": [
        {
          "internalType": "address",
          "name": "",
          "type": "address"
        }
      ],
      "stateMutability": "view",
      "type": "function"
    },
    {
      "inputs": [],
      "name": "passToken",
      "outputs": [
        {
          "internalType": "contract IERC20",
          "name": "",
          "type": "address"
        }
      ],
      "stateMutability": "view",
      "type": "function"
    },
    {
      "inputs": [],
      "name": "renounceOwnership",
      "outputs": [],
      "stateMutability": "nonpayable",
      "type": "function"
    },
    {
      "inputs": [
        {
          "internalType": "address",
          "name": "newOwner",
          "type": "address"
        }
      ],
      "name": "transferOwnership",
      "outputs": [],
      "stateMutability": "nonpayable",
      "type": "function"
    },
    {
      "inputs": [
        {
          "internalType": "address",
          "name": "_to",
          "type": "address"
        }
      ],
      "name": "withdrawUnclaimedTokens",
      "outputs": [],
      "stateMutability": "nonpayable",
      "type": "function"
    }
  ],
  "bytecode": "0x61010060405234801561001157600080fd5b50604051610bf3380380610bf38339810160408190526100309161024e565b338061005757604051631e4fbdf760e01b8152600060048201526024015b60405180910390fd5b610060816101e2565b506001600160a01b0384166100b75760405162461bcd60e51b815260206004820152601e60248201527f41697264726f703a20496e76616c696420746f6b656e20616464726573730000604482015260640161004e565b6001600160a01b03831661010d5760405162461bcd60e51b815260206004820152601c60248201527f41697264726f703a20496e76616c696420424153206164647265737300000000604482015260640161004e565b8161015a5760405162461bcd60e51b815260206004820152601a60248201527f41697264726f703a20496e76616c696420736368656d61204944000000000000604482015260640161004e565b600081116101bf5760405162461bcd60e51b815260206004820152602c60248201527f41697264726f703a20436c61696d20616d6f756e74206d75737420626520677260448201526b06561746572207468616e20360a41b606482015260840161004e565b6001600160a01b039384166080529190921660a05260c09190915260e052610291565b600080546001600160a01b038381166001600160a01b0319831681178455604051919092169283917f8be0079c531659141344cd1fd0a4f28419497f9722a3daafe3b4186f6b6457e09190a35050565b80516001600160a01b038116811461024957600080fd5b919050565b6000806000806080858703121561026457600080fd5b61026d85610232565b935061027b60208601610232565b6040860151606090960151949790965092505050565b60805160a05160c05160e0516108f36103006000396000818160e20152818161038c015261049c01526000818160a801526101fd01526000818161010901526102270152600081816101c4015281816103b30152818161056d0152818161065b015261073101526108f36000f3fe608060405234801561001057600080fd5b506004361061009e5760003560e01c806373b2e80e1161006657806373b2e80e146101555780638da5cb5b14610188578063e399641014610199578063f2fde38b146101ac578063fecfdff7146101bf57600080fd5b80631552f8f8146100a3578063270ef385146100dd5780633c2db2d9146101045780634e71d92d14610143578063715018a61461014d575b600080fd5b6100ca7f000000000000000000000000000000000000000000000000000000000000000081565b6040519081526020015b60405180910390f35b6100ca7f000000000000000000000000000000000000000000000000000000000000000081565b61012b7f000000000000000000000000000000000000000000000000000000000000000081565b6040516001600160a01b0390911681526020016100d4565b61014b6101e6565b005b61014b6104d7565b610178610163366004610852565b60016020526000908152604090205460ff1681565b60405190151581526020016100d4565b6000546001600160a01b031661012b565b61014b6101a7366004610852565b6104eb565b61014b6101ba366004610852565b610797565b61012b7f000000000000000000000000000000000000000000000000000000000000000081565b6040516331d1e06360e01b815233600482018190527f00000000000000000000000000000000000000000000000000000000000000006024830152906000907f00000000000000000000000000000000000000000000000000000000000000006001600160a01b0316906331d1e06390604401602060405180830381865afa158015610276573d6000803e3d6000fd5b505050506040513d601f19601f8201168201806040525081019061029a9190610882565b9050806102e65760405162461bcd60e51b8152602060048201526015602482015274105a5c991c9bdc0e88139bdd08185d1d195cdd1959605a1b60448201526064015b60405180910390fd5b6001600160a01b03821660009081526001602052604090205460ff161561034f5760405162461bcd60e51b815260206004820152601860248201527f41697264726f703a20416c726561647920636c61696d6564000000000000000060448201526064016102dd565b6001600160a01b038281166000818152600160208190526040808320805460ff19169092179091555163a9059cbb60e01b815260048101929092527f00000000000000000000000000000000000000000000000000000000000000006024830152917f0000000000000000000000000000000000000000000000000000000000000000169063a9059cbb906044016020604051808303816000875af11580156103fc573d6000803e3d6000fd5b505050506040513d601f19601f820116820180604052508101906104209190610882565b90508061046f5760405162461bcd60e51b815260206004820152601e60248201527f41697264726f703a20546f6b656e207472616e73666572206661696c6564000060448201526064016102dd565b826001600160a01b03167f47cee97cb7acd717b3c0aa1435d004cd5b3c8c57d70dbceb4e4458bbd60e39d47f00000000000000000000000000000000000000000000000000000000000000006040516104ca91815260200190565b60405180910390a2505050565b6104df6107d5565b6104e96000610802565b565b6104f36107d5565b6001600160a01b0381166105555760405162461bcd60e51b815260206004820152602360248201527f41697264726f703a20496e76616c6964207769746864726177616c206164647260448201526265737360e81b60648201526084016102dd565b6040516370a0823160e01b81523060048201526000907f00000000000000000000000000000000000000000000000000000000000000006001600160a01b0316906370a0823190602401602060405180830381865afa1580156105bc573d6000803e3d6000fd5b505050506040513d601f19601f820116820180604052508101906105e091906108a4565b9050600081116106325760405162461bcd60e51b815260206004820152601e60248201527f41697264726f703a204e6f20746f6b656e7320746f207769746864726177000060448201526064016102dd565b60405163a9059cbb60e01b81526001600160a01b038381166004830152602482018390526000917f00000000000000000000000000000000000000000000000000000000000000009091169063a9059cbb906044016020604051808303816000875af11580156106a6573d6000803e3d6000fd5b505050506040513d601f19601f820116820180604052508101906106ca9190610882565b9050806107255760405162461bcd60e51b815260206004820152602360248201527f41697264726f703a205769746864726177616c207472616e73666572206661696044820152621b195960ea1b60648201526084016102dd565b826001600160a01b03167f00000000000000000000000000000000000000000000000000000000000000006001600160a01b03167f6337ed398c0e8467698c581374fdce4db14922df487b5a39483079f5f59b60a48460405161078a91815260200190565b60405180910390a3505050565b61079f6107d5565b6001600160a01b0381166107c957604051631e4fbdf760e01b8152600060048201526024016102dd565b6107d281610802565b50565b6000546001600160a01b031633146104e95760405163118cdaa760e01b81523360048201526024016102dd565b600080546001600160a01b038381166001600160a01b0319831681178455604051919092169283917f8be0079c531659141344cd1fd0a4f28419497f9722a3daafe3b4186f6b6457e09190a35050565b60006020828403121561086457600080fd5b81356001600160a01b038116811461087b57600080fd5b9392505050565b60006020828403121561089457600080fd5b8151801515811461087b57600080fd5b6000602082840312156108b657600080fd5b505191905056fea26469706673582212201ff22671c63926797f9a087655e2e8c536c10663c12d5efe2dfd5a960a0aab0464736f6c63430008140033",
  "linkReferences": {},
  "deployedLinkReferences": {}
}